{
  "contractName": "Decentraskill",
  "abi": [
    {
      "inputs": [],
      "stateMutability": "nonpayable",
      "type": "constructor"
    },
    {
      "inputs": [
        {
          "internalType": "address",
          "name": "",
          "type": "address"
        }
      ],
      "name": "address_to_id",
      "outputs": [
        {
          "internalType": "uint256",
          "name": "",
          "type": "uint256"
        }
      ],
      "stateMutability": "view",
      "type": "function"
    },
    {
      "inputs": [
        {
          "internalType": "uint256",
          "name": "",
          "type": "uint256"
        }
      ],
      "name": "certifications",
      "outputs": [
        {
          "internalType": "string",
          "name": "url",
          "type": "string"
        },
        {
          "internalType": "string",
          "name": "issue_date",
          "type": "string"
        },
        {
          "internalType": "string",
          "name": "valid_till",
          "type": "string"
        },
        {
          "internalType": "string",
          "name": "name",
          "type": "string"
        },
        {
          "internalType": "uint256",
          "name": "id",
          "type": "uint256"
        },
        {
          "internalType": "string",
          "name": "issuer",
          "type": "string"
        }
      ],
      "stateMutability": "view",
      "type": "function"
    },
    {
      "inputs": [
        {
          "internalType": "uint256",
          "name": "",
          "type": "uint256"
        }
      ],
      "name": "companies",
      "outputs": [
        {
          "internalType": "uint256",
          "name": "id",
          "type": "uint256"
        },
        {
          "internalType": "string",
          "name": "name",
          "type": "string"
        },
        {
          "internalType": "address",
          "name": "wallet_address",
          "type": "address"
        }
      ],
      "stateMutability": "view",
      "type": "function"
    },
    {
      "inputs": [
        {
          "internalType": "string",
          "name": "",
          "type": "string"
        }
      ],
      "name": "email_to_address",
      "outputs": [
        {
          "internalType": "address",
          "name": "",
          "type": "address"
        }
      ],
      "stateMutability": "view",
      "type": "function"
    },
    {
      "inputs": [
        {
          "internalType": "uint256",
          "name": "",
          "type": "uint256"
        }
      ],
      "name": "employees",
      "outputs": [
        {
          "internalType": "uint256",
          "name": "id",
          "type": "uint256"
        },
        {
          "internalType": "uint256",
          "name": "company_id",
          "type": "uint256"
        },
        {
          "internalType": "string",
          "name": "name",
          "type": "string"
        },
        {
          "internalType": "address",
          "name": "wallet_address",
          "type": "address"
        },
        {
          "internalType": "bool",
          "name": "is_employed",
          "type": "bool"
        },
        {
          "internalType": "bool",
          "name": "is_manager",
          "type": "bool"
        },
        {
          "internalType": "uint256",
          "name": "num_skill",
          "type": "uint256"
        }
      ],
      "stateMutability": "view",
      "type": "function"
    },
    {
      "inputs": [
        {
          "internalType": "uint256",
          "name": "",
          "type": "uint256"
        }
      ],
      "name": "endorsments",
      "outputs": [
        {
          "internalType": "uint256",
          "name": "endorser_id",
          "type": "uint256"
        },
        {
          "internalType": "string",
          "name": "date",
          "type": "string"
        },
        {
          "internalType": "string",
          "name": "comment",
          "type": "string"
        }
      ],
      "stateMutability": "view",
      "type": "function"
    },
    {
      "inputs": [
        {
          "internalType": "uint256",
          "name": "",
          "type": "uint256"
        }
      ],
      "name": "experiences",
      "outputs": [
        {
          "internalType": "string",
          "name": "starting_date",
          "type": "string"
        },
        {
          "internalType": "string",
          "name": "ending_date",
          "type": "string"
        },
        {
          "internalType": "string",
          "name": "user_name",
          "type": "string"
        },
        {
          "internalType": "string",
          "name": "role",
          "type": "string"
        },
        {
          "internalType": "bool",
          "name": "currently_working",
          "type": "bool"
        },
        {
          "internalType": "uint256",
          "name": "company_id",
          "type": "uint256"
        },
        {
          "internalType": "bool",
          "name": "is_approved",
          "type": "bool"
        }
      ],
      "stateMutability": "view",
      "type": "function"
    },
    {
      "inputs": [
        {
          "internalType": "address",
          "name": "",
          "type": "address"
        }
      ],
      "name": "is_company",
      "outputs": [
        {
          "internalType": "bool",
          "name": "",
          "type": "bool"
        }
      ],
      "stateMutability": "view",
      "type": "function"
    },
    {
      "inputs": [
        {
          "internalType": "uint256",
          "name": "",
          "type": "uint256"
        }
      ],
      "name": "skills",
      "outputs": [
        {
          "internalType": "uint256",
          "name": "id",
          "type": "uint256"
        },
        {
          "internalType": "string",
          "name": "name",
          "type": "string"
        },
        {
          "internalType": "bool",
          "name": "verified",
          "type": "bool"
        }
      ],
      "stateMutability": "view",
      "type": "function"
    },
    {
      "inputs": [
        {
          "internalType": "string",
          "name": "email",
          "type": "string"
        },
        {
          "internalType": "string",
          "name": "name",
          "type": "string"
        },
        {
          "internalType": "string",
          "name": "acc_type",
          "type": "string"
        }
      ],
      "name": "sign_up",
      "outputs": [],
      "stateMutability": "nonpayable",
      "type": "function"
    },
    {
      "inputs": [
        {
          "internalType": "uint256",
          "name": "employee_id",
          "type": "uint256"
        }
      ],
      "name": "approve_manager",
      "outputs": [],
      "stateMutability": "nonpayable",
      "type": "function"
    },
    {
      "inputs": [
        {
          "internalType": "string",
          "name": "email",
          "type": "string"
        }
      ],
      "name": "login",
      "outputs": [
        {
          "internalType": "string",
          "name": "",
          "type": "string"
        }
      ],
      "stateMutability": "view",
      "type": "function"
    },
    {
      "inputs": [
        {
          "internalType": "uint256",
          "name": "user_id",
          "type": "uint256"
        },
        {
          "internalType": "string",
          "name": "url",
          "type": "string"
        },
        {
          "internalType": "string",
          "name": "issue_date",
          "type": "string"
        },
        {
          "internalType": "string",
          "name": "valid_till",
          "type": "string"
        },
        {
          "internalType": "string",
          "name": "name",
          "type": "string"
        },
        {
          "internalType": "string",
          "name": "issuer",
          "type": "string"
        },
        {
          "internalType": "uint256",
          "name": "linked_skill_id",
          "type": "uint256"
        }
      ],
      "name": "add_certification",
      "outputs": [],
      "stateMutability": "nonpayable",
      "type": "function"
    },
    {
      "inputs": [
        {
          "internalType": "uint256",
          "name": "userid",
          "type": "uint256"
        },
        {
          "internalType": "string",
          "name": "skill_name",
          "type": "string"
        }
      ],
      "name": "add_skill",
      "outputs": [],
      "stateMutability": "nonpayable",
      "type": "function"
    },
    {
      "inputs": [
        {
          "internalType": "uint256",
          "name": "user_id",
          "type": "uint256"
        },
        {
          "internalType": "uint256",
          "name": "skill_id",
          "type": "uint256"
        },
        {
          "internalType": "string",
          "name": "endorsing_date",
          "type": "string"
        },
        {
          "internalType": "string",
          "name": "comment",
          "type": "string"
        }
      ],
      "name": "endorse_skill",
      "outputs": [],
      "stateMutability": "nonpayable",
      "type": "function"
    },
    {
      "inputs": [
        {
          "internalType": "uint256",
          "name": "user_id",
          "type": "uint256"
        },
        {
          "internalType": "string",
          "name": "starting_date",
          "type": "string"
        },
        {
          "internalType": "string",
          "name": "ending_date",
          "type": "string"
        },
        {
          "internalType": "string",
          "name": "role",
          "type": "string"
        },
        {
          "internalType": "uint256",
          "name": "company_id",
          "type": "uint256"
        }
      ],
      "name": "add_experience",
      "outputs": [],
      "stateMutability": "nonpayable",
      "type": "function"
    },
    {
      "inputs": [
        {
          "internalType": "uint256",
          "name": "exp_id",
          "type": "uint256"
        },
        {
          "internalType": "uint256",
          "name": "company_id",
          "type": "uint256"
        }
      ],
      "name": "approve_experience",
      "outputs": [],
      "stateMutability": "nonpayable",
      "type": "function"
    },
    {
      "inputs": [
        {
          "internalType": "string",
          "name": "email",
          "type": "string"
        },
        {
          "internalType": "address",
          "name": "new_address",
          "type": "address"
        }
      ],
      "name": "update_wallet_address",
      "outputs": [],
      "stateMutability": "nonpayable",
      "type": "function"
    },
    {
      "inputs": [
        {
          "internalType": "uint256",
          "name": "id",
          "type": "uint256"
        }
      ],
      "name": "skills_of_user",
      "outputs": [
        {
          "internalType": "uint256[]",
          "name": "",
          "type": "uint256[]"
        }
      ],
      "stateMutability": "view",
      "type": "function"
    },
    {
      "inputs": [
        {
          "internalType": "uint256",
          "name": "id",
          "type": "uint256"
        }
      ],
      "name": "exp_of_user",
      "outputs": [
        {
          "internalType": "uint256[]",
          "name": "",
          "type": "uint256[]"
        }
      ],
      "stateMutability": "view",
      "type": "function"
    },
    {
      "inputs": [
        {
          "internalType": "uint256",
          "name": "id",
          "type": "uint256"
        }
      ],
      "name": "curr_emp_of_company",
      "outputs": [
        {
          "internalType": "uint256[]",
          "name": "",
          "type": "uint256[]"
        }
      ],
      "stateMutability": "view",
      "type": "function"
    },
    {
      "inputs": [
        {
          "internalType": "uint256",
          "name": "id",
          "type": "uint256"
        }
      ],
      "name": "prev_emp_of_company",
      "outputs": [
        {
          "internalType": "uint256[]",
          "name": "",
          "type": "uint256[]"
        }
      ],
      "stateMutability": "view",
      "type": "function"
    },
    {
      "inputs": [
        {
          "internalType": "uint256",
          "name": "id",
          "type": "uint256"
        }
      ],
      "name": "requested_emp_of_company",
      "outputs": [
        {
          "internalType": "uint256[]",
          "name": "",
          "type": "uint256[]"
        }
      ],
      "stateMutability": "view",
      "type": "function"
    },
    {
      "inputs": [
        {
          "internalType": "uint256",
          "name": "id",
          "type": "uint256"
        }
      ],
      "name": "cert_of_skill",
      "outputs": [
        {
          "internalType": "uint256[]",
          "name": "",
          "type": "uint256[]"
        }
      ],
      "stateMutability": "view",
      "type": "function"
    },
    {
      "inputs": [
        {
          "internalType": "uint256",
          "name": "id",
          "type": "uint256"
        }
      ],
      "name": "endrs_of_skill",
      "outputs": [
        {
          "internalType": "uint256[]",
          "name": "",
          "type": "uint256[]"
        }
      ],
      "stateMutability": "view",
      "type": "function"
    }
  ],
  "bytecode": "0x60806040523480156200001157600080fd5b5060006001808160018154018082558091505003906000526020600020906007020190506040518060400160405280600581526020017f64756d6d7900000000000000000000000000000000000000000000000000000081525081600201908051906020019062000084929190620001f1565b50338160030160006101000a81548173ffffffffffffffffffffffffffffffffffffffff021916908373ffffffffffffffffffffffffffffffffffffffff16021790555060008160000181905550600067ffffffffffffffff81111562000114577f4e487b7100000000000000000000000000000000000000000000000000000000600052604160045260246000fd5b604051908082528060200260200182016040528015620001435781602001602082028036833780820191505090505b508160050190805190602001906200015d92919062000282565b50600067ffffffffffffffff811115620001a0577f4e487b7100000000000000000000000000000000000000000000000000000000600052604160045260246000fd5b604051908082528060200260200182016040528015620001cf5781602001602082028036833780820191505090505b50816006019080519060200190620001e992919062000282565b505062000358565b828054620001ff90620002f3565b90600052602060002090601f0160209004810192826200022357600085556200026f565b82601f106200023e57805160ff19168380011785556200026f565b828001600101855582156200026f579182015b828111156200026e57825182559160200191906001019062000251565b5b5090506200027e9190620002d4565b5090565b828054828255906000526020600020908101928215620002c1579160200282015b82811115620002c0578251825591602001919060010190620002a3565b5b509050620002d09190620002d4565b5090565b5b80821115620002ef576000816000905550600101620002d5565b5090565b600060028204905060018216806200030c57607f821691505b6020821081141562000323576200032262000329565b5b50919050565b7f4e487b7100000000000000000000000000000000000000000000000000000000600052602260045260246000fd5b61434380620003686000396000f3fe608060405234801561001057600080fd5b50600436106101735760003560e01c806350d15fbe116100de578063b1e116c311610097578063dd7a753811610071578063dd7a753814610507578063edf85a8614610537578063f7a03f3b14610553578063f86b20cb1461058357610173565b8063b1e116c31461046f578063ce77c9c9146104a1578063cf3e7c7c146104d157610173565b806350d15fbe146103755780635a2ec07c146103a75780637a52f30e146103c3578063852e65de146103f3578063884ffe32146104235780639e70be411461043f57610173565b80632cc8e274116101305780632cc8e2741461025e57806336d77eaa1461028e5780633a7d280c146102aa5780633c0359a4146102da5780634739326b1461030f5780634845a2951461034557610173565b8063067709dd146101785780630c1bc59114610194578063110ce79c146101b05780631575cdea146101e057806317ae5f81146101fc5780632813d19d1461022c575b600080fd5b610192600480360381019061018d91906135fe565b61059f565b005b6101ae60048036038101906101a99190613532565b610717565b005b6101ca60048036038101906101c591906134b1565b61097f565b6040516101d79190613a7e565b60405180910390f35b6101fa60048036038101906101f591906133cc565b610a22565b005b610216600480360381019061021191906134b1565b610ff7565b6040516102239190613a7e565b60405180910390f35b610246600480360381019061024191906134b1565b61109a565b60405161025593929190613ce7565b60405180910390f35b610278600480360381019061027391906134b1565b61117c565b6040516102859190613a7e565b60405180910390f35b6102a860048036038101906102a391906134b1565b61121f565b005b6102c460048036038101906102bf9190613470565b611476565b6040516102d19190613abb565b60405180910390f35b6102f460048036038101906102ef91906134b1565b6115ee565b60405161030696959493929190613b68565b60405180910390f35b610329600480360381019061032491906134b1565b6118e2565b60405161033c9796959493929190613da8565b60405180910390f35b61035f600480360381019061035a9190613470565b6119f6565b60405161036c9190613a63565b60405180910390f35b61038f600480360381019061038a91906134b1565b611a3f565b60405161039e93929190613d25565b60405180910390f35b6103c160048036038101906103bc91906134da565b611b0e565b005b6103dd60048036038101906103d8919061334b565b611d63565b6040516103ea9190613ccc565b60405180910390f35b61040d600480360381019061040891906134b1565b611d7b565b60405161041a9190613a7e565b60405180910390f35b61043d60048036038101906104389190613374565b611e1e565b005b610459600480360381019061045491906134b1565b611ffe565b6040516104669190613a7e565b60405180910390f35b610489600480360381019061048491906134b1565b6120a1565b60405161049893929190613d63565b60405180910390f35b6104bb60048036038101906104b691906134b1565b6121eb565b6040516104c89190613a7e565b60405180910390f35b6104eb60048036038101906104e691906134b1565b61228e565b6040516104fe9796959493929190613add565b60405180910390f35b610521600480360381019061051c919061334b565b61251a565b60405161052e9190613aa0565b60405180910390f35b610551600480360381019061054c9190613726565b61253a565b005b61056d600480360381019061056891906134b1565b612c8d565b60405161057a9190613a7e565b60405180910390f35b61059d60048036038101906105989190613762565b612d30565b005b8a600760003373ffffffffffffffffffffffffffffffffffffffff1673ffffffffffffffffffffffffffffffffffffffff1681526020019081526020016000205481146105eb57600080fd5b6000600260018160018154018082558091505003906000526020600020906006020190508b81600001908051906020019061062792919061306c565b508a8a82600101919061063b9291906130f2565b50888882600201919061064f9291906130f2565b5086868260030191906106639291906130f2565b5060016002805490506106769190613ed4565b816004018190555084848260050191906106919291906130f2565b50600483815481106106cc577f4e487b7100000000000000000000000000000000000000000000000000000000600052603260045260246000fd5b90600052602060002090600502016003018160040154908060018154018082558091505060019003906000526020600020016000909190919091505550505050505050505050505050565b87600760003373ffffffffffffffffffffffffffffffffffffffff1673ffffffffffffffffffffffffffffffffffffffff16815260200190815260200160002054811461076357600080fd5b60006005600181600181540180825580915050039060005260206000209060070201905082816005018190555060008160040160006101000a81548160ff02191690831515021790555060008160060160006101000a81548160ff02191690831515021790555088888260000191906107dd9291906130f2565b5086868260010191906107f19291906130f2565b5084848260030191906108059291906130f2565b5060018a81548110610840577f4e487b7100000000000000000000000000000000000000000000000000000000600052603260045260246000fd5b90600052602060002090600702016002018160020190805461086190613f92565b61086c929190613178565b5060018a815481106108a7577f4e487b7100000000000000000000000000000000000000000000000000000000600052603260045260246000fd5b906000526020600020906007020160060160016005805490506108ca9190613ed4565b90806001815401808255809150506001900390600052602060002001600090919091909150556000838154811061092a577f4e487b7100000000000000000000000000000000000000000000000000000000600052603260045260246000fd5b9060005260206000209060060201600501600160058054905061094d9190613ed4565b908060018154018082558091505060019003906000526020600020016000909190919091505550505050505050505050565b6060600482815481106109bb577f4e487b7100000000000000000000000000000000000000000000000000000000600052603260045260246000fd5b9060005260206000209060050201600401805480602002602001604051908101604052809291908181526020018280548015610a1657602002820191906000526020600020905b815481526020019060010190808311610a02575b50505050509050919050565b600073ffffffffffffffffffffffffffffffffffffffff1660068787604051610a4c929190613a33565b908152602001604051809103902060009054906101000a900473ffffffffffffffffffffffffffffffffffffffff1673ffffffffffffffffffffffffffffffffffffffff1614610ad1576040517f08c379a0000000000000000000000000000000000000000000000000000000008152600401610ac890613c8c565b60405180910390fd5b3360068787604051610ae4929190613a33565b908152602001604051809103902060006101000a81548173ffffffffffffffffffffffffffffffffffffffff021916908373ffffffffffffffffffffffffffffffffffffffff160217905550610bb382828080601f016020809104026020016040519081016040528093929190818152602001838380828437600081840152601f19601f820116905080830192505050505050506040518060400160405280600481526020017f7573657200000000000000000000000000000000000000000000000000000000815250613030565b15610da95760006001808160018154018082558091505003906000526020600020906007020190508484826002019190610bee9291906130f2565b5060018080549050610c009190613ed4565b8160000181905550338160030160006101000a81548173ffffffffffffffffffffffffffffffffffffffff021916908373ffffffffffffffffffffffffffffffffffffffff1602179055508060000154600760003373ffffffffffffffffffffffffffffffffffffffff1673ffffffffffffffffffffffffffffffffffffffff16815260200190815260200160002081905550600067ffffffffffffffff811115610cd4577f4e487b7100000000000000000000000000000000000000000000000000000000600052604160045260246000fd5b604051908082528060200260200182016040528015610d025781602001602082028036833780820191505090505b50816005019080519060200190610d1a929190613205565b50600067ffffffffffffffff811115610d5c577f4e487b7100000000000000000000000000000000000000000000000000000000600052604160045260246000fd5b604051908082528060200260200182016040528015610d8a5781602001602082028036833780820191505090505b50816006019080519060200190610da2929190613205565b5050610fef565b60008060018160018154018082558091505003906000526020600020906006020190508484826001019190610ddf9291906130f2565b506001600080549050610df29190613ed4565b8160000181905550338160020160006101000a81548173ffffffffffffffffffffffffffffffffffffffff021916908373ffffffffffffffffffffffffffffffffffffffff160217905550600067ffffffffffffffff811115610e7e577f4e487b7100000000000000000000000000000000000000000000000000000000600052604160045260246000fd5b604051908082528060200260200182016040528015610eac5781602001602082028036833780820191505090505b50816003019080519060200190610ec4929190613205565b50600067ffffffffffffffff811115610f06577f4e487b7100000000000000000000000000000000000000000000000000000000600052604160045260246000fd5b604051908082528060200260200182016040528015610f345781602001602082028036833780820191505090505b50816004019080519060200190610f4c929190613205565b508060000154600760003373ffffffffffffffffffffffffffffffffffffffff1673ffffffffffffffffffffffffffffffffffffffff168152602001908152602001600020819055506001600860003373ffffffffffffffffffffffffffffffffffffffff1673ffffffffffffffffffffffffffffffffffffffff16815260200190815260200160002060006101000a81548160ff021916908315150217905550505b505050505050565b606060008281548110611033577f4e487b7100000000000000000000000000000000000000000000000000000000600052603260045260246000fd5b906000526020600020906006020160050180548060200260200160405190810160405280929190818152602001828054801561108e57602002820191906000526020600020905b81548152602001906001019080831161107a575b50505050509050919050565b600081815481106110aa57600080fd5b90600052602060002090600602016000915090508060000154908060010180546110d390613f92565b80601f01602080910402602001604051908101604052809291908181526020018280546110ff90613f92565b801561114c5780601f106111215761010080835404028352916020019161114c565b820191906000526020600020905b81548152906001019060200180831161112f57829003601f168201915b5050505050908060020160009054906101000a900473ffffffffffffffffffffffffffffffffffffffff16905083565b6060600082815481106111b8577f4e487b7100000000000000000000000000000000000000000000000000000000600052603260045260246000fd5b906000526020600020906006020160040180548060200260200160405190810160405280929190818152602001828054801561121357602002820191906000526020600020905b8154815260200190600101908083116111ff575b50505050509050919050565b600860003373ffffffffffffffffffffffffffffffffffffffff1673ffffffffffffffffffffffffffffffffffffffff16815260200190815260200160002060009054906101000a900460ff166112ab576040517f08c379a00000000000000000000000000000000000000000000000000000000081526004016112a290613c0c565b60405180910390fd5b600760003373ffffffffffffffffffffffffffffffffffffffff1673ffffffffffffffffffffffffffffffffffffffff1681526020019081526020016000205460018281548110611325577f4e487b7100000000000000000000000000000000000000000000000000000000600052603260045260246000fd5b90600052602060002090600702016001015414611377576040517f08c379a000000000000000000000000000000000000000000000000000000000815260040161136e90613c4c565b60405180910390fd5b600181815481106113b1577f4e487b7100000000000000000000000000000000000000000000000000000000600052603260045260246000fd5b906000526020600020906007020160030160159054906101000a900460ff1615611410576040517f08c379a000000000000000000000000000000000000000000000000000000000815260040161140790613cac565b60405180910390fd5b600180828154811061144b577f4e487b7100000000000000000000000000000000000000000000000000000000600052603260045260246000fd5b906000526020600020906007020160030160156101000a81548160ff02191690831515021790555050565b60606006826040516114889190613a4c565b908152602001604051809103902060009054906101000a900473ffffffffffffffffffffffffffffffffffffffff1673ffffffffffffffffffffffffffffffffffffffff163373ffffffffffffffffffffffffffffffffffffffff1614611524576040517f08c379a000000000000000000000000000000000000000000000000000000000815260040161151b90613c2c565b60405180910390fd5b600860003373ffffffffffffffffffffffffffffffffffffffff1673ffffffffffffffffffffffffffffffffffffffff16815260200190815260200160002060009054906101000a900460ff166115b0576040518060400160405280600481526020017f75736572000000000000000000000000000000000000000000000000000000008152506115e7565b6040518060400160405280600781526020017f636f6d70616e79000000000000000000000000000000000000000000000000008152505b9050919050565b600281815481106115fe57600080fd5b906000526020600020906006020160009150905080600001805461162190613f92565b80601f016020809104026020016040519081016040528092919081815260200182805461164d90613f92565b801561169a5780601f1061166f5761010080835404028352916020019161169a565b820191906000526020600020905b81548152906001019060200180831161167d57829003601f168201915b5050505050908060010180546116af90613f92565b80601f01602080910402602001604051908101604052809291908181526020018280546116db90613f92565b80156117285780601f106116fd57610100808354040283529160200191611728565b820191906000526020600020905b81548152906001019060200180831161170b57829003601f168201915b50505050509080600201805461173d90613f92565b80601f016020809104026020016040519081016040528092919081815260200182805461176990613f92565b80156117b65780601f1061178b576101008083540402835291602001916117b6565b820191906000526020600020905b81548152906001019060200180831161179957829003601f168201915b5050505050908060030180546117cb90613f92565b80601f01602080910402602001604051908101604052809291908181526020018280546117f790613f92565b80156118445780601f1061181957610100808354040283529160200191611844565b820191906000526020600020905b81548152906001019060200180831161182757829003601f168201915b50505050509080600401549080600501805461185f90613f92565b80601f016020809104026020016040519081016040528092919081815260200182805461188b90613f92565b80156118d85780601f106118ad576101008083540402835291602001916118d8565b820191906000526020600020905b8154815290600101906020018083116118bb57829003601f168201915b5050505050905086565b600181815481106118f257600080fd5b906000526020600020906007020160009150905080600001549080600101549080600201805461192190613f92565b80601f016020809104026020016040519081016040528092919081815260200182805461194d90613f92565b801561199a5780601f1061196f5761010080835404028352916020019161199a565b820191906000526020600020905b81548152906001019060200180831161197d57829003601f168201915b5050505050908060030160009054906101000a900473ffffffffffffffffffffffffffffffffffffffff16908060030160149054906101000a900460ff16908060030160159054906101000a900460ff16908060040154905087565b6006818051602081018201805184825260208301602085012081835280955050505050506000915054906101000a900473ffffffffffffffffffffffffffffffffffffffff1681565b60048181548110611a4f57600080fd5b9060005260206000209060050201600091509050806000015490806001018054611a7890613f92565b80601f0160208091040260200160405190810160405280929190818152602001828054611aa490613f92565b8015611af15780601f10611ac657610100808354040283529160200191611af1565b820191906000526020600020905b815481529060010190602001808311611ad457829003601f168201915b5050505050908060020160009054906101000a900460ff16905083565b82600760003373ffffffffffffffffffffffffffffffffffffffff1673ffffffffffffffffffffffffffffffffffffffff168152602001908152602001600020548114611b5a57600080fd5b60006004600181600181540180825580915050039060005260206000209060050201905060018581548110611bb8577f4e487b7100000000000000000000000000000000000000000000000000000000600052603260045260246000fd5b90600052602060002090600702016005016001600480549050611bdb9190613ed4565b90806001815401808255809150506001900390600052602060002001600090919091909150556001600480549050611c139190613ed4565b81600001819055508383826001019190611c2e9291906130f2565b5060008160020160006101000a81548160ff021916908315150217905550600067ffffffffffffffff811115611c8d577f4e487b7100000000000000000000000000000000000000000000000000000000600052604160045260246000fd5b604051908082528060200260200182016040528015611cbb5781602001602082028036833780820191505090505b50816003019080519060200190611cd3929190613205565b50600067ffffffffffffffff811115611d15577f4e487b7100000000000000000000000000000000000000000000000000000000600052604160045260246000fd5b604051908082528060200260200182016040528015611d435781602001602082028036833780820191505090505b50816004019080519060200190611d5b929190613205565b505050505050565b60076020528060005260406000206000915090505481565b606060008281548110611db7577f4e487b7100000000000000000000000000000000000000000000000000000000600052603260045260246000fd5b9060005260206000209060060201600301805480602002602001604051908101604052809291908181526020018280548015611e1257602002820191906000526020600020905b815481526020019060010190808311611dfe575b50505050509050919050565b3373ffffffffffffffffffffffffffffffffffffffff1660068484604051611e47929190613a33565b908152602001604051809103902060009054906101000a900473ffffffffffffffffffffffffffffffffffffffff1673ffffffffffffffffffffffffffffffffffffffff1614611ecc576040517f08c379a0000000000000000000000000000000000000000000000000000000008152600401611ec390613c6c565b60405180910390fd5b8060068484604051611edf929190613a33565b908152602001604051809103902060006101000a81548173ffffffffffffffffffffffffffffffffffffffff021916908373ffffffffffffffffffffffffffffffffffffffff1602179055506000600760003373ffffffffffffffffffffffffffffffffffffffff1673ffffffffffffffffffffffffffffffffffffffff1681526020019081526020016000205490506000600760003373ffffffffffffffffffffffffffffffffffffffff1673ffffffffffffffffffffffffffffffffffffffff1681526020019081526020016000208190555080600760008473ffffffffffffffffffffffffffffffffffffffff1673ffffffffffffffffffffffffffffffffffffffff1681526020019081526020016000208190555050505050565b60606001828154811061203a577f4e487b7100000000000000000000000000000000000000000000000000000000600052603260045260246000fd5b906000526020600020906007020160050180548060200260200160405190810160405280929190818152602001828054801561209557602002820191906000526020600020905b815481526020019060010190808311612081575b50505050509050919050565b600381815481106120b157600080fd5b90600052602060002090600302016000915090508060000154908060010180546120da90613f92565b80601f016020809104026020016040519081016040528092919081815260200182805461210690613f92565b80156121535780601f1061212857610100808354040283529160200191612153565b820191906000526020600020905b81548152906001019060200180831161213657829003601f168201915b50505050509080600201805461216890613f92565b80601f016020809104026020016040519081016040528092919081815260200182805461219490613f92565b80156121e15780601f106121b6576101008083540402835291602001916121e1565b820191906000526020600020905b8154815290600101906020018083116121c457829003601f168201915b5050505050905083565b606060018281548110612227577f4e487b7100000000000000000000000000000000000000000000000000000000600052603260045260246000fd5b906000526020600020906007020160060180548060200260200160405190810160405280929190818152602001828054801561228257602002820191906000526020600020905b81548152602001906001019080831161226e575b50505050509050919050565b6005818154811061229e57600080fd5b90600052602060002090600702016000915090508060000180546122c190613f92565b80601f01602080910402602001604051908101604052809291908181526020018280546122ed90613f92565b801561233a5780601f1061230f5761010080835404028352916020019161233a565b820191906000526020600020905b81548152906001019060200180831161231d57829003601f168201915b50505050509080600101805461234f90613f92565b80601f016020809104026020016040519081016040528092919081815260200182805461237b90613f92565b80156123c85780601f1061239d576101008083540402835291602001916123c8565b820191906000526020600020905b8154815290600101906020018083116123ab57829003601f168201915b5050505050908060020180546123dd90613f92565b80601f016020809104026020016040519081016040528092919081815260200182805461240990613f92565b80156124565780601f1061242b57610100808354040283529160200191612456565b820191906000526020600020905b81548152906001019060200180831161243957829003601f168201915b50505050509080600301805461246b90613f92565b80601f016020809104026020016040519081016040528092919081815260200182805461249790613f92565b80156124e45780601f106124b9576101008083540402835291602001916124e4565b820191906000526020600020905b8154815290600101906020018083116124c757829003601f168201915b5050505050908060040160009054906101000a900460ff16908060050154908060060160009054906101000a900460ff16905087565b60086020528060005260406000206000915054906101000a900460ff1681565b600860003373ffffffffffffffffffffffffffffffffffffffff1673ffffffffffffffffffffffffffffffffffffffff16815260200190815260200160002060009054906101000a900460ff1680156126675750600582815481106125c8577f4e487b7100000000000000000000000000000000000000000000000000000000600052603260045260246000fd5b9060005260206000209060070201600501546000600760003373ffffffffffffffffffffffffffffffffffffffff1673ffffffffffffffffffffffffffffffffffffffff1681526020019081526020016000205481548110612653577f4e487b7100000000000000000000000000000000000000000000000000000000600052603260045260246000fd5b906000526020600020906006020160000154145b806127e657506001600760003373ffffffffffffffffffffffffffffffffffffffff1673ffffffffffffffffffffffffffffffffffffffff16815260200190815260200160002054815481106126e6577f4e487b7100000000000000000000000000000000000000000000000000000000600052603260045260246000fd5b906000526020600020906007020160030160159054906101000a900460ff1680156127e5575060058281548110612746577f4e487b7100000000000000000000000000000000000000000000000000000000600052603260045260246000fd5b9060005260206000209060070201600501546001600760003373ffffffffffffffffffffffffffffffffffffffff1673ffffffffffffffffffffffffffffffffffffffff16815260200190815260200160002054815481106127d1577f4e487b7100000000000000000000000000000000000000000000000000000000600052603260045260246000fd5b906000526020600020906007020160010154145b5b612825576040517f08c379a000000000000000000000000000000000000000000000000000000000815260040161281c90613bec565b60405180910390fd5b6000600160058481548110612863577f4e487b7100000000000000000000000000000000000000000000000000000000600052603260045260246000fd5b906000526020600020906007020160060160006101000a81548160ff021916908315150217905550600090505b600082815481106128ca577f4e487b7100000000000000000000000000000000000000000000000000000000600052603260045260246000fd5b906000526020600020906006020160050180549050811015612a25578260008381548110612921577f4e487b7100000000000000000000000000000000000000000000000000000000600052603260045260246000fd5b9060005260206000209060060201600501828154811061296a577f4e487b7100000000000000000000000000000000000000000000000000000000600052603260045260246000fd5b90600052602060002001541415612a125760008083815481106129b6577f4e487b7100000000000000000000000000000000000000000000000000000000600052603260045260246000fd5b906000526020600020906006020160050182815481106129ff577f4e487b7100000000000000000000000000000000000000000000000000000000600052603260045260246000fd5b9060005260206000200181905550612a25565b8080612a1d90613ff5565b915050612890565b600090505b60008281548110612a64577f4e487b7100000000000000000000000000000000000000000000000000000000600052603260045260246000fd5b906000526020600020906006020160030180549050811015612bbf576000808381548110612abb577f4e487b7100000000000000000000000000000000000000000000000000000000600052603260045260246000fd5b90600052602060002090600602016003018281548110612b04577f4e487b7100000000000000000000000000000000000000000000000000000000600052603260045260246000fd5b90600052602060002001541415612bac578260008381548110612b50577f4e487b7100000000000000000000000000000000000000000000000000000000600052603260045260246000fd5b90600052602060002090600602016005018281548110612b99577f4e487b7100000000000000000000000000000000000000000000000000000000600052603260045260246000fd5b9060005260206000200181905550612bbf565b8080612bb790613ff5565b915050612a2a565b60008281548110612bf9577f4e487b7100000000000000000000000000000000000000000000000000000000600052603260045260246000fd5b906000526020600020906006020160030180549050811415612c885760008281548110612c4f577f4e487b7100000000000000000000000000000000000000000000000000000000600052603260045260246000fd5b90600052602060002090600602016003018390806001815401808255809150506001900390600052602060002001600090919091909150555b505050565b606060048281548110612cc9577f4e487b7100000000000000000000000000000000000000000000000000000000600052603260045260246000fd5b9060005260206000209060050201600301805480602002602001604051908101604052809291908181526020018280548015612d2457602002820191906000526020600020905b815481526020019060010190808311612d10575b50505050509050919050565b600060036001816001815401808255809150500390600052602060002090600302019050600760003373ffffffffffffffffffffffffffffffffffffffff1673ffffffffffffffffffffffffffffffffffffffff1681526020019081526020016000205481600001819055508282826002019190612daf9291906130f2565b508484826001019190612dc39291906130f2565b5060048681548110612dfe577f4e487b7100000000000000000000000000000000000000000000000000000000600052603260045260246000fd5b90600052602060002090600502016004016001600380549050612e219190613ed4565b90806001815401808255809150506001900390600052602060002001600090919091909150556001600760003373ffffffffffffffffffffffffffffffffffffffff1673ffffffffffffffffffffffffffffffffffffffff1681526020019081526020016000205481548110612ec0577f4e487b7100000000000000000000000000000000000000000000000000000000600052603260045260246000fd5b906000526020600020906007020160030160159054906101000a900460ff16156130275760018781548110612f1e577f4e487b7100000000000000000000000000000000000000000000000000000000600052603260045260246000fd5b9060005260206000209060070201600101546001600760003373ffffffffffffffffffffffffffffffffffffffff1673ffffffffffffffffffffffffffffffffffffffff1681526020019081526020016000205481548110612fa9577f4e487b7100000000000000000000000000000000000000000000000000000000600052603260045260246000fd5b906000526020600020906007020160010154141561302657600160048781548110612ffd577f4e487b7100000000000000000000000000000000000000000000000000000000600052603260045260246000fd5b906000526020600020906005020160020160006101000a81548160ff0219169083151502179055505b5b50505050505050565b600061303c8383613044565b905092915050565b600081518351148015613064575081805190602001208380519060200120145b905092915050565b82805461307890613f92565b90600052602060002090601f01602090048101928261309a57600085556130e1565b82601f106130b357805160ff19168380011785556130e1565b828001600101855582156130e1579182015b828111156130e05782518255916020019190600101906130c5565b5b5090506130ee9190613252565b5090565b8280546130fe90613f92565b90600052602060002090601f0160209004810192826131205760008555613167565b82601f1061313957803560ff1916838001178555613167565b82800160010185558215613167579182015b8281111561316657823582559160200191906001019061314b565b5b5090506131749190613252565b5090565b82805461318490613f92565b90600052602060002090601f0160209004810192826131a657600085556131f4565b82601f106131b757805485556131f4565b828001600101855582156131f457600052602060002091601f016020900482015b828111156131f35782548255916001019190600101906131d8565b5b5090506132019190613252565b5090565b828054828255906000526020600020908101928215613241579160200282015b82811115613240578251825591602001919060010190613225565b5b50905061324e9190613252565b5090565b5b8082111561326b576000816000905550600101613253565b5090565b600061328261327d84613e43565b613e1e565b90508281526020810184848401111561329a57600080fd5b6132a5848285613f50565b509392505050565b6000813590506132bc816142df565b92915050565b60008083601f8401126132d457600080fd5b8235905067ffffffffffffffff8111156132ed57600080fd5b60208301915083600182028301111561330557600080fd5b9250929050565b600082601f83011261331d57600080fd5b813561332d84826020860161326f565b91505092915050565b600081359050613345816142f6565b92915050565b60006020828403121561335d57600080fd5b600061336b848285016132ad565b91505092915050565b60008060006040848603121561338957600080fd5b600084013567ffffffffffffffff8111156133a357600080fd5b6133af868287016132c2565b935093505060206133c2868287016132ad565b9150509250925092565b600080600080600080606087890312156133e557600080fd5b600087013567ffffffffffffffff8111156133ff57600080fd5b61340b89828a016132c2565b9650965050602087013567ffffffffffffffff81111561342a57600080fd5b61343689828a016132c2565b9450945050604087013567ffffffffffffffff81111561345557600080fd5b61346189828a016132c2565b92509250509295509295509295565b60006020828403121561348257600080fd5b600082013567ffffffffffffffff81111561349c57600080fd5b6134a88482850161330c565b91505092915050565b6000602082840312156134c357600080fd5b60006134d184828501613336565b91505092915050565b6000806000604084860312156134ef57600080fd5b60006134fd86828701613336565b935050602084013567ffffffffffffffff81111561351a57600080fd5b613526868287016132c2565b92509250509250925092565b60008060008060008060008060a0898b03121561354e57600080fd5b600061355c8b828c01613336565b985050602089013567ffffffffffffffff81111561357957600080fd5b6135858b828c016132c2565b9750975050604089013567ffffffffffffffff8111156135a457600080fd5b6135b08b828c016132c2565b9550955050606089013567ffffffffffffffff8111156135cf57600080fd5b6135db8b828c016132c2565b935093505060806135ee8b828c01613336565b9150509295985092959890939650565b600080600080600080600080600080600060e08c8e03121561361f57600080fd5b600061362d8e828f01613336565b9b505060208c013567ffffffffffffffff81111561364a57600080fd5b6136568e828f0161330c565b9a505060408c013567ffffffffffffffff81111561367357600080fd5b61367f8e828f016132c2565b995099505060608c013567ffffffffffffffff81111561369e57600080fd5b6136aa8e828f016132c2565b975097505060808c013567ffffffffffffffff8111156136c957600080fd5b6136d58e828f016132c2565b955095505060a08c013567ffffffffffffffff8111156136f457600080fd5b6137008e828f016132c2565b935093505060c06137138e828f01613336565b9150509295989b509295989b9093969950565b6000806040838503121561373957600080fd5b600061374785828601613336565b925050602061375885828601613336565b9150509250929050565b6000806000806000806080878903121561377b57600080fd5b600061378989828a01613336565b965050602061379a89828a01613336565b955050604087013567ffffffffffffffff8111156137b757600080fd5b6137c389828a016132c2565b9450945050606087013567ffffffffffffffff8111156137e257600080fd5b6137ee89828a016132c2565b92509250509295509295509295565b60006138098383613a15565b60208301905092915050565b61381e81613f08565b82525050565b600061382f82613e84565b6138398185613ea7565b935061384483613e74565b8060005b8381101561387557815161385c88826137fd565b975061386783613e9a565b925050600181019050613848565b5085935050505092915050565b61388b81613f1a565b82525050565b600061389d8385613ec9565b93506138aa838584613f50565b82840190509392505050565b60006138c182613e8f565b6138cb8185613eb8565b93506138db818560208601613f5f565b6138e4816140cb565b840191505092915050565b60006138fa82613e8f565b6139048185613ec9565b9350613914818560208601613f5f565b80840191505092915050565b600061392d605283613eb8565b9150613938826140dc565b606082019050919050565b6000613950602383613eb8565b915061395b82614151565b604082019050919050565b6000613973603383613eb8565b915061397e826141a0565b604082019050919050565b6000613996602383613eb8565b91506139a1826141ef565b604082019050919050565b60006139b9603483613eb8565b91506139c48261423e565b604082019050919050565b60006139dc601b83613eb8565b91506139e78261428d565b602082019050919050565b60006139ff602083613eb8565b9150613a0a826142b6565b602082019050919050565b613a1e81613f46565b82525050565b613a2d81613f46565b82525050565b6000613a40828486613891565b91508190509392505050565b6000613a5882846138ef565b915081905092915050565b6000602082019050613a786000830184613815565b92915050565b60006020820190508181036000830152613a988184613824565b905092915050565b6000602082019050613ab56000830184613882565b92915050565b60006020820190508181036000830152613ad581846138b6565b905092915050565b600060e0820190508181036000830152613af7818a6138b6565b90508181036020830152613b0b81896138b6565b90508181036040830152613b1f81886138b6565b90508181036060830152613b3381876138b6565b9050613b426080830186613882565b613b4f60a0830185613a24565b613b5c60c0830184613882565b98975050505050505050565b600060c0820190508181036000830152613b8281896138b6565b90508181036020830152613b9681886138b6565b90508181036040830152613baa81876138b6565b90508181036060830152613bbe81866138b6565b9050613bcd6080830185613a24565b81810360a0830152613bdf81846138b6565b9050979650505050505050565b60006020820190508181036000830152613c0581613920565b9050919050565b60006020820190508181036000830152613c2581613943565b9050919050565b60006020820190508181036000830152613c4581613966565b9050919050565b60006020820190508181036000830152613c6581613989565b9050919050565b60006020820190508181036000830152613c85816139ac565b9050919050565b60006020820190508181036000830152613ca5816139cf565b9050919050565b60006020820190508181036000830152613cc5816139f2565b9050919050565b6000602082019050613ce16000830184613a24565b92915050565b6000606082019050613cfc6000830186613a24565b8181036020830152613d0e81856138b6565b9050613d1d6040830184613815565b949350505050565b6000606082019050613d3a6000830186613a24565b8181036020830152613d4c81856138b6565b9050613d5b6040830184613882565b949350505050565b6000606082019050613d786000830186613a24565b8181036020830152613d8a81856138b6565b90508181036040830152613d9e81846138b6565b9050949350505050565b600060e082019050613dbd600083018a613a24565b613dca6020830189613a24565b8181036040830152613ddc81886138b6565b9050613deb6060830187613815565b613df86080830186613882565b613e0560a0830185613882565b613e1260c0830184613a24565b98975050505050505050565b6000613e28613e39565b9050613e348282613fc4565b919050565b6000604051905090565b600067ffffffffffffffff821115613e5e57613e5d61409c565b5b613e67826140cb565b9050602081019050919050565b6000819050602082019050919050565b600081519050919050565b600081519050919050565b6000602082019050919050565b600082825260208201905092915050565b600082825260208201905092915050565b600081905092915050565b6000613edf82613f46565b9150613eea83613f46565b925082821015613efd57613efc61403e565b5b828203905092915050565b6000613f1382613f26565b9050919050565b60008115159050919050565b600073ffffffffffffffffffffffffffffffffffffffff82169050919050565b6000819050919050565b82818337600083830152505050565b60005b83811015613f7d578082015181840152602081019050613f62565b83811115613f8c576000848401525b50505050565b60006002820490506001821680613faa57607f821691505b60208210811415613fbe57613fbd61406d565b5b50919050565b613fcd826140cb565b810181811067ffffffffffffffff82111715613fec57613feb61409c565b5b80604052505050565b600061400082613f46565b91507fffffffffffffffffffffffffffffffffffffffffffffffffffffffffffffffff8214156140335761403261403e565b5b600182019050919050565b7f4e487b7100000000000000000000000000000000000000000000000000000000600052601160045260246000fd5b7f4e487b7100000000000000000000000000000000000000000000000000000000600052602260045260246000fd5b7f4e487b7100000000000000000000000000000000000000000000000000000000600052604160045260246000fd5b6000601f19601f8301169050919050565b7f6572726f723a20617070726f7665722073686f756c642062652074686520636f60008201527f6d70616e79206163636f756e74206f722061206d616e61676572206f6620746860208201527f6520726571756972656420636f6d70616e790000000000000000000000000000604082015250565b7f6572726f723a2073656e646572206e6f74206120636f6d70616e79206163636f60008201527f756e740000000000000000000000000000000000000000000000000000000000602082015250565b7f6572726f723a20696e636f72726563742077616c6c657420616464726573732060008201527f7573656420666f72207369676e696e6720696e00000000000000000000000000602082015250565b7f6572726f723a2075736572206e6f74206f66207468652073616d6520636f6d7060008201527f616e790000000000000000000000000000000000000000000000000000000000602082015250565b7f6572726f723a2066756e6374696f6e2063616c6c65642066726f6d20696e636f60008201527f72726563742077616c6c65742061646472657373000000000000000000000000602082015250565b7f6572726f723a207573657220616c726561647920657869737473210000000000600082015250565b7f6572726f723a207573657220697320616c72656164792061206d616e61676572600082015250565b6142e881613f08565b81146142f357600080fd5b50565b6142ff81613f46565b811461430a57600080fd5b5056fea2646970667358221220b2708946358939bb1680b39cb1d12fe9f494fa5f9fd757a28f2752ee6d56acf864736f6c63430008010033",
  "immutableReferences": {},
  "source": "// SPDX-License-Identifier: MIT\r\npragma solidity ^0.8.1;\r\n\r\ncontract Decentraskill {\r\n    company[] public companies;\r\n    user[] public employees;\r\n    certificate[] public certifications;\r\n    endorsment[] public endorsments;\r\n    skill[] public skills;\r\n    experience[] public experiences;\r\n\r\n    mapping(string => address) public email_to_address;\r\n    mapping(address => uint256) public address_to_id;\r\n    mapping(address => bool) public is_company;\r\n\r\n    modifier verifiedUser(uint256 user_id) {\r\n        require(user_id == address_to_id[msg.sender]);\r\n        _;\r\n    }\r\n\r\n    struct company {\r\n        uint256 id;\r\n        string name;\r\n        address wallet_address;\r\n        uint256[] current_employees;\r\n        uint256[] previous_employees;\r\n        uint256[] requested_employees;\r\n    }\r\n\r\n    struct certificate {\r\n        string url;\r\n        string issue_date;\r\n        string valid_till;\r\n        string name;\r\n        uint256 id;\r\n        string issuer;\r\n    }\r\n\r\n    struct endorsment {\r\n        uint256 endorser_id;\r\n        string date;\r\n        string comment;\r\n    }\r\n\r\n    struct experience {\r\n        string starting_date;\r\n        string ending_date;\r\n        string user_name;\r\n        string role;\r\n        bool currently_working;\r\n        uint256 company_id;\r\n        bool is_approved;\r\n    }\r\n\r\n    struct skill {\r\n        uint256 id;\r\n        string name;\r\n        bool verified;\r\n        uint256[] skill_certifications;\r\n        uint256[] skill_endorsements;\r\n    }\r\n\r\n    struct user {\r\n        uint256 id;\r\n        uint256 company_id;\r\n        string name;\r\n        address wallet_address;\r\n        bool is_employed;\r\n        bool is_manager;\r\n        uint256 num_skill;\r\n        uint256[] user_skills;\r\n        uint256[] user_work_experience;\r\n    }\r\n\r\n    constructor() {\r\n        user storage dummy_user = employees.push();\r\n        dummy_user.name = \"dummy\";\r\n        dummy_user.wallet_address = msg.sender;\r\n        dummy_user.id = 0;\r\n        dummy_user.user_skills = new uint256[](0);\r\n        dummy_user.user_work_experience = new uint256[](0);\r\n    }\r\n\r\n    function memcmp(bytes memory a, bytes memory b)\r\n        internal\r\n        pure\r\n        returns (bool)\r\n    {\r\n        return (a.length == b.length) && (keccak256(a) == keccak256(b));\r\n    }\r\n\r\n    function strcmp(string memory a, string memory b)\r\n        internal\r\n        pure\r\n        returns (bool)\r\n    {\r\n        return memcmp(bytes(a), bytes(b));\r\n    }\r\n\r\n    function sign_up(\r\n        string calldata email,\r\n        string calldata name,\r\n        string calldata acc_type\r\n    ) public {\r\n        require(\r\n            email_to_address[email] == address(0),\r\n            \"error: user already exists!\"\r\n        );\r\n        email_to_address[email] = msg.sender;\r\n\r\n        if (strcmp(acc_type, \"user\")) {\r\n            user storage new_user = employees.push();\r\n            new_user.name = name;\r\n            new_user.id = employees.length - 1;\r\n            new_user.wallet_address = msg.sender;\r\n            address_to_id[msg.sender] = new_user.id;\r\n            new_user.user_skills = new uint256[](0);\r\n            new_user.user_work_experience = new uint256[](0);\r\n        } else {\r\n            company storage new_company = companies.push();\r\n            new_company.name = name;\r\n            new_company.id = companies.length - 1;\r\n            new_company.wallet_address = msg.sender;\r\n            new_company.current_employees = new uint256[](0);\r\n            new_company.previous_employees = new uint256[](0);\r\n            address_to_id[msg.sender] = new_company.id;\r\n            is_company[msg.sender] = true;\r\n        }\r\n    }\r\n\r\n    function approve_manager(uint256 employee_id) public {\r\n        require(is_company[msg.sender], \"error: sender not a company account\");\r\n        require(\r\n            employees[employee_id].company_id == address_to_id[msg.sender],\r\n            \"error: user not of the same company\"\r\n        );\r\n        require(\r\n            !(employees[employee_id].is_manager),\r\n            \"error: user is already a manager\"\r\n        );\r\n        employees[employee_id].is_manager = true;\r\n    }\r\n\r\n    function login(string memory email) public view returns (string memory) {\r\n        require(\r\n            msg.sender == email_to_address[email],\r\n            \"error: incorrect wallet address used for signing in\"\r\n        );\r\n        return (is_company[msg.sender]) ? \"company\" : \"user\";\r\n    }\r\n\r\n    function add_certification(\r\n        uint256 user_id,\r\n        string memory url,\r\n        string calldata issue_date,\r\n        string calldata valid_till,\r\n        string calldata name,\r\n        string calldata issuer,\r\n        uint256 linked_skill_id\r\n    ) public verifiedUser(user_id) {\r\n        certificate storage new_certificate = certifications.push();\r\n        new_certificate.url = url;\r\n        new_certificate.issue_date = issue_date;\r\n        new_certificate.valid_till = valid_till;\r\n        new_certificate.name = name;\r\n        new_certificate.id = certifications.length - 1;\r\n        new_certificate.issuer = issuer;\r\n        skills[linked_skill_id].skill_certifications.push(new_certificate.id);\r\n    }\r\n\r\n    function add_skill(uint256 userid, string calldata skill_name)\r\n        public\r\n        verifiedUser(userid)\r\n    {\r\n        skill storage new_skill = skills.push();\r\n        employees[userid].user_skills.push(skills.length - 1);\r\n        new_skill.id = skills.length - 1;\r\n        new_skill.name = skill_name;\r\n        new_skill.verified = false;\r\n        new_skill.skill_certifications = new uint256[](0);\r\n        new_skill.skill_endorsements = new uint256[](0);\r\n    }\r\n\r\n    function endorse_skill(\r\n        uint256 user_id,\r\n        uint256 skill_id,\r\n        string calldata endorsing_date,\r\n        string calldata comment\r\n    ) public {\r\n        endorsment storage new_endorsemnt = endorsments.push();\r\n        new_endorsemnt.endorser_id = address_to_id[msg.sender];\r\n        new_endorsemnt.comment = comment;\r\n        new_endorsemnt.date = endorsing_date;\r\n        skills[skill_id].skill_endorsements.push(endorsments.length - 1);\r\n        if (employees[address_to_id[msg.sender]].is_manager) {\r\n            if (\r\n                employees[address_to_id[msg.sender]].company_id ==\r\n                employees[user_id].company_id\r\n            ) {\r\n                skills[skill_id].verified = true;\r\n            }\r\n        }\r\n    }\r\n\r\n    function add_experience(\r\n        uint256 user_id,\r\n        string calldata starting_date,\r\n        string calldata ending_date,\r\n        string calldata role,\r\n        uint256 company_id\r\n    ) public verifiedUser(user_id) {\r\n        experience storage new_experience = experiences.push();\r\n        new_experience.company_id = company_id;\r\n        new_experience.currently_working = false;\r\n        new_experience.is_approved = false;\r\n        new_experience.starting_date = starting_date;\r\n        new_experience.ending_date = ending_date;\r\n        new_experience.role = role;\r\n        new_experience.user_name = employees[user_id].name;\r\n        employees[user_id].user_work_experience.push(experiences.length - 1);\r\n        companies[company_id].requested_employees.push(experiences.length - 1);\r\n    }\r\n\r\n    function approve_experience(uint256 exp_id, uint256 company_id) public {\r\n        require(\r\n            (is_company[msg.sender] &&\r\n                companies[address_to_id[msg.sender]].id ==\r\n                experiences[exp_id].company_id) ||\r\n                (employees[address_to_id[msg.sender]].is_manager &&\r\n                    employees[address_to_id[msg.sender]].company_id ==\r\n                    experiences[exp_id].company_id),\r\n            \"error: approver should be the company account or a manager of the required company\"\r\n        );\r\n        uint256 i;\r\n        experiences[exp_id].is_approved = true;\r\n        for (i = 0; i < companies[company_id].requested_employees.length; i++) {\r\n            if (companies[company_id].requested_employees[i] == exp_id) {\r\n                companies[company_id].requested_employees[i] = 0;\r\n                break;\r\n            }\r\n        }\r\n        for (i = 0; i < companies[company_id].current_employees.length; i++) {\r\n            if (companies[company_id].current_employees[i] == 0) {\r\n                companies[company_id].requested_employees[i] = exp_id;\r\n                break;\r\n            }\r\n        }\r\n        if (i == companies[company_id].current_employees.length)\r\n            companies[company_id].current_employees.push(exp_id);\r\n    }\r\n\r\n    function update_wallet_address(string calldata email, address new_address)\r\n        public\r\n    {\r\n        require(\r\n            email_to_address[email] == msg.sender,\r\n            \"error: function called from incorrect wallet address\"\r\n        );\r\n        email_to_address[email] = new_address;\r\n        uint256 id = address_to_id[msg.sender];\r\n        address_to_id[msg.sender] = 0;\r\n        address_to_id[new_address] = id;\r\n    }\r\n\r\n    function skills_of_user(uint256 id) public view returns (uint256[] memory) {\r\n        return employees[id].user_skills;\r\n    }\r\n\r\n    function exp_of_user(uint256 id) public view returns (uint256[] memory) {\r\n        return employees[id].user_work_experience;\r\n    }\r\n\r\n    function curr_emp_of_company(uint256 id)\r\n        public\r\n        view\r\n        returns (uint256[] memory)\r\n    {\r\n        return companies[id].current_employees;\r\n    }\r\n\r\n    function prev_emp_of_company(uint256 id)\r\n        public\r\n        view\r\n        returns (uint256[] memory)\r\n    {\r\n        return companies[id].previous_employees;\r\n    }\r\n\r\n    function requested_emp_of_company(uint256 id)\r\n        public\r\n        view\r\n        returns (uint256[] memory)\r\n    {\r\n        return companies[id].requested_employees;\r\n    }\r\n\r\n    function cert_of_skill(uint256 id) public view returns (uint256[] memory) {\r\n        return skills[id].skill_certifications;\r\n    }\r\n\r\n    function endrs_of_skill(uint256 id) public view returns (uint256[] memory) {\r\n        return skills[id].skill_endorsements;\r\n    }\r\n}\r\n",
  "sourcePath": "D:\\Technical\\Projects\\Decentraskill\\contracts\\Decentraskill.sol",
  "compiler": {
    "name": "solc",
    "version": "0.8.1+commit.df193b15.Emscripten.clang"
  },
  "schemaVersion": "3.4.10",
  "updatedAt": "2022-11-25T12:22:03.063Z",
  "devdoc": {
    "kind": "dev",
    "methods": {},
    "version": 1
  },
  "userdoc": {
    "kind": "user",
    "methods": {},
    "version": 1
  }
}